:0200000480007A
:10000000370100801301010BE7000100130000001D
:1000100000000000000000000000000000000000E0
:10002000232E11FE232C51FE232A61FE232871FE6C
:100030002326A1FE2324B1FE2322C1FE2320D1FECC
:10004000232EE1FC232CF1FC232A01FD232811FDA2
:100050002326C1FD2324D1FD2322E1FD2320F1FD30
:10006000130101FCEF0080258320C103832281035B
:1000700003234103832301030325C1028325810256
:1000800003264102832601020327C1018327810140
:100090000328410183280101032EC100832E810022
:1000A000032F4100832F010013010104730020304E
:1000B0009711000093810199170100001301811825
:1000C000170500001305051897050000938585178F
:1000D0006308B50023200500130545006FF05FFF9E
:1000E000138581911301C1FF93858191630EB50042
:1000F00083260500130545002320A100E7800600A4
:10010000032501006FF05FFE130141003715000069
:1001100013050588731045303725000013058580C9
:1001200073100530EF00C0196F00000000000000E0
:0401300000000000CB
:10024000B70601F00347050063140700678000004C
:1002500083A7460093D7070193F7F70FE38A07FEBA
:1002600023A0E600130515006FF0DFFD130101FF69
:1002700023261100EFF0DFFC370701F0832747004A
:1002800093D7070193F7F70FE38A07FE9307A000C0
:100290002320F7008320C1001301010167800000C3
:1002A00093070000370700F06394A7006780000001
:1002B00083264700938717006FF01FFF67800000B9
:1002C000B70700A01307100023A2E70013072000C0
:1002D00023A4E7001307300023A6E700130740001C
:1002E00023A8E7001307500023AAE70013076000C4
:1002F00023ACE7001307700023AEE700130780006C
:1003000023A0E7021307900023A2E70223A007001F
:100310001307000093070000B70500281306A0008C
:10032000B386B7009396260083A60600B3C6D7000F
:10033000938717003307D700E394C7FE9306100096
:10034000630407009306F0FFB70700F023A0E7045B
:0803500023A0D7046780000020
:040000058000000077
:00000001FF
