:0200000480007A
:100000006F00000B1300000013000000130000003D
:100010001300000013000000130000001300000094
:10002000232E11FE232C51FE232A61FE232871FE6C
:100030002326A1FE2324B1FE2322C1FE2320D1FECC
:10004000232EE1FC232CF1FC232A01FD232811FDA2
:100050002326C1FD2324D1FD2322E1FD2320F1FD30
:10006000130101FCEF20C00F8320C1038322810311
:1000700003234103832301030325C1028325810256
:1000800003264102832601020327C1018327810140
:100090000328410183280101032EC100832E810022
:1000A000032F4100832F010013010104730020304E
:1000B0009731000093818190138181901725000072
:1000C0001305C50F972500009385450F6308B500FC
:1000D00023200500130545006FF05FFF1725000082
:1000E0001305850D1301C1FF972500009385C50CED
:1000F000630EB50083260500130545002320A100EB
:10010000E7800600032501006FF01FFE1301410088
:10011000371500001305058873104530372500009A
:100120001305858073100530EF20C0036F000000B9
:102130008346050063840602370701F01305150086
:102140008327470093D7070193F7F70FE38A07FE2A
:102150002320D70083460500E39206FE6780000037
:042160006780000094
:10216400B70701F01307500323A4E700B726008044
:102174001307700023A6E700130680049386C61A8B
:10218400370701F0938616008327470093D707018A
:1021940093F7F70FE38A07FE2320C70003C6060060
:0821A400E31206FE6780000053
:0821AC0048656C6C6F00000037
:0421B4000000000027
:040000058000000077
:00000001FF
